S0120000426F6F744C6F616465722E7372656327
S11300000080002015050000C30400004F05000017
S11300105B050000790500007B050000000000007E
S11300200000000000000000000000007D0500004A
S11300307F0500000000000081050000830500002A
S113004075050000750500007505000075050000C4
S113005075050000750500007505000075050000B4
S113006075050000750500007505000075050000A4
S11300707505000075050000750500007505000094
S11303F0750500007505000075050000FFFFFFFF8F
S1130400FFFFFFFFFFFFFFFFFFFFFFFFFEFFFFFFF9
S113041010B5114C606800F07F40B0F17C4F18BFFC
S11304204FF4016008D140F60800406800F07F40B6
S1130430B0F17C4F02D0094800F012F840F60801F0
S113044020680968884234BF04484FF4016000F012
S113045007F8002010BD0000080800101008001064
S11304604368D0F800D0184600477047103A07D3C5
S113047030B4B1E83810103AA0E83810F9D230BCE2
S1130480530724BFB1E80810A0E8081044BF51F88E
S1130490043B40F8043BD20724BF31F8022B20F878
S11304A0022B44BF0B7803707047083A07D3B1E8B6
S11304B00810083A40F8043B40F804CBF7D253073D
S11304C0E4E7FEE780B50748800806D005488208BF
S11304D0920005490548FFF7C9FF0448044908602C
S11304E001BD00BF0000000000000000000000008B
S11304F008ED00E04CF22050044908804DF6281025
S113050008804FF4E9700249088070470E200540C6
S11305100020054072B6034880470348804762B60E
S113052002480047F5040000C50400006905000006
S11305300120C046002801D0C046C0460020C04665
S1130540C046FFF765FF00F000F800F001B8FEE7D1
S11305500746384600F002F8FBE7FEE720210903CE
S113056026311820ABBEF9E7C046C046C046C04697
S1130570FFF7DEFFFFF7FEBFFEE7FEE7FEE7FEE75D
S1070580FEE7FEE7A9
S1130800FFFFFFFFFFFFFFFFFFFFFFFFFFFFFFFCF7
S113081000800020819E01000F4A0000B39E010069
S1130820B79E0100BB9E0100BF9E010000000000B6
S11308300000000000000000000000006B41000008
S1130840C39E010000000000E1410000AF9E0100D2
S113085009A3010009A3010009A3010009A30100E0
S113086009A3010009A3010009A3010009A30100D0
S113087009A3010009A3010009A3010009A30100C0
S113088009A3010009A3010009A3010009A30100B0
S113089009A3010009A3010009A3010009A30100A0
S11308A009A3010009A3010009A3010009A3010090
S11308B009A3010009A3010009A3010009A3010080
S11308C009A301002D9D0100379D01004B9D0100EE
S11308D009A3010009A30100559D010009A301001A
S11308E009A301005F9D0100699D01007D9D010038
S11308F009A3010009A30100879D010009A30100C8
S113090009A3010009A3010009A3010009A301002F
S113091009A3010009A3010009A3010009A301001F
S113092009A3010009A3010009A3010009A301000F
S113093009A3010009A3010009A3010009A30100FF
S1130C00AB9E0100AB9E0100AB9E0100FFFFFFFF06
S1130C1038B5050014D04FF4C0702C18606A50B178
S1130C2002F07AFF38B101220FF25C010FF26C007E
S1130C3003F058F804E0D82002F021FF606208B9FC
S1130C40002032BD4FF4E2704FF4C27128442944AD
S1130C500022042300250D6005700572656A1544A1
S1130C600D6200254D6045704572801C656A15440F
S1130C701B354D62363208315B1EEBD1FF202070EC
S1130C8000206070012032BD666C6F775F636F6E09
S1130C9074726F6C5F696E697400000025733A4565
S1130CA052524F5228256429206672656520666C6D
S1130CB06F7720636F6E74726F6C20726573706FE0
S1130CC06E7365207461626C650A000038B54FF478
S1130CD0836003F0D4F80A2003F0D1F840F2062030
S1130CE003F0D7F84FF4037003F0D3F840F20D206B
S1130CF003F0CFF8082003F0C2F8002003F033F922
S1130D00012003F030F94FF4EA74074D21462846D8
S1130D1003F0EEF92146681803F0EAF90020287080
S1130D20012085F8D40131BDF485FF1F2DE9F04F72
S1130D30A5B001218DF81510049000218DF8141030
S1130D4017A8342103F0D4F900208DF8190003F01A
S1130D50D2F902460B46DFF8A4ADDFF8A40D5146E4
S1130D6002F0C0FF0498027808B1022A07DB51465A
S1130D70DFF8900D02F0B6FF25B0BDE8F08F042037
S1130D808DF82A0007208DF82B0001208DF829000A
S1130D901020099002208DF8280000208DF83400DE
S1130DA04FF4406002F069FE049901F1F40BCBF8B2
S1130DB0700030B95146DFF85C0D02F093FF03F088
S1130DC0D2F99DF834209DF82810049802F052FBC3
S1130DD030B95146DFF8400D02F084FF03F0C3F947
S1130DE0049802F086FB30B95146DFF8300D02F06A
S1130DF079FF03F0B8F90498FFF70AFF30B95146B8
S1130E00DFF81C0D02F06EFF03F0ADF904984FF407
S1130E10A27108441090002103F078FA04984FF46A
S1130E20AA7108440F90002103F070FA0498007826
S1130E30002807BF002102200021032003F014FB37
S1130E40ADF81A00BDF81A0040B904980278DFF82A
S1130E50D40C514602F046FF03F085F90498027859
S1130E60DFF8C40C514602F03DFF04984FF4BA7108
S1130E7047184FF4C07108440E90DCE3641CA9F1D8
S1130E80010920460026012190F90020491E130083
S1130E9037D03601A2F130030A2B38BF303A0AD3D7
S1130EA0A2F14103062B38BF373A04D3A2F1610300
S1130EB0062B26D2573A9619401C0029E4D1641C0B
S1130EC0A9F101092AD02078752808D10DF116015D
S1130ED0601C02F09FFA10B1641DA9F10509F6B275
S1130EE033460A2B33DA04980078010008BF022B3A
S1130EF01BD1034653225146DFF8300C02F0F2FEB8
S1130F0099E0F6B2009653222378DFF8240C514678
S1130F1002F0E8FE01208DF815008CE0DFF8141CC7
S1130F20DFF8140C02F0DEFED9E78DF82B605322B3
S1130F305146DFF8080C02F0D5FE00208DF81500AC
S1130F4020780D280AD1641CA9F101098AE05322F2
S1130F505146DFF8EC0B02F0C5FE6CE0532251461B
S1130F60DFF8E00B02F0BEFE01208DF8150062E010
S1130F705146DFF8D40B02F0B5FE01208DF82A00AB
S1130F8020784F2808D142465146DFF8C00B02F0C2
S1130F90A9FE00208DF82A00641C9DF81500A9F113
S1130FA0010930B142465146DFF8A40B02F09AFE23
S1130FB041E020460026012190F90020491E13003B
S1130FC030D03601A2F130030A2B38BF303A0AD3AD
S1130FD0A2F14103062B38BF373A04D3A2F16103CF
S1130FE0062B1FD2573A9619401C0029E4D1641CE1
S1130FF0A9F1010921D02078752808D10DF1160135
S1131000601C02F007FA10B1641DA9F1050914F877
S1131010010B0D2818D042465146DFF8CC0D02F0E2
S113102061FE08E0F6B2009642462378DFF8BC0D74
S1131030514602F057FE07251FE0DFF8F81ADFF8E3
S1131040F80A02F04FFEE2E79BF812000028049829
S1131050A9F1010923D00378DFF8940D42465146E3
S113106002F040FEB9F1010F07DB0D2D02BFDFF8DE
S1131070840D0078002800F0EC82079803F09CFDB2
S113108004980078801CC0B203F043FE060040F0D0
S113109084865146DFF8600D02F024FECBE200782E
S11310A0002807BF002109A809A9002001F06AFD52
S11310B0034642465146DFF8440D02F013FE1098F1
S11310C0CBF800000F98CBF80400F0B20028049885
S11310D000780ED1010004D14FF4836002F0CFFEFA
S11310E011E0012803D10A2002F0C9FE0BE003231A
S11310F00AE0010008BF4FF4836002D00128F6D152
S11311000A2002F0C6FE0023F6B20096424651467B
S1131110DFF8EC0C02F0E6FD049801F0D5FD03467F
S113112042465146DFF8DC0C02F0DCFD01208BF86E
S113113012009DF82900002800F028810498007806
S1131140002104F012FD002342465146DFF8B80C9A
S113115002F0C8FD049800786FF00042012104F009
S11311600AFD04980078012104F0FFFC002000909F
S1131170002618E0396889196FF060404860012042
S11311803968891948700020396888553868009A88
S11311908019436841780498007804F000FD0098B1
S11311A0401C009008360098796888420ED2B968CD
S11311B08842EBD3C007DDD53968891940F2FF7046
S11311C048600020396889194870DDE74246514675
S11311D0DFF8380C02F086FD00260896DBF8740070
S11311E008993A68089BD7F804C008441344417826
S11311F05A78002914BF54A154A1002A14BF52A242
S113120052A2664534BF5B686FF060430391514658
S1131210406802900192009342463346DFF8F00B97
S113122002F060FD0898761C0830182E0890D5D37B
S113123042465146DFF8DC0B02F054FD04984FF4AB
S1131240E6714618396B30780291002839690191AA
S113125014BF3DA03DA00090002342465146DFF854
S1131260B80B02F03FFD796B707802910028796920
S1131270019114BF34A035A0009001234246514689
S1131280DFF8940B02F02EFDB96BB07802910028C0
S1131290B969019114BF2CA02CA0009002234246EE
S11312A051460FF6943002F01DFDF96BF07802916F
S11312B00028F969019114BF23A024A000900323FE
S11312C0424651460FF6703002F00CFD396C30790D
S11312D002910028396A019114BF1BA01BA0009041
S11312E00423424651460FF6503002F0FBFC796C61
S11312F0707902910028796A019114BF12A013A099
S113130000900523424651460FF62C3002F0EAFCC9
S1131310B96CB07902910028B96A019114BF0AA08E
S11313200AA000900623424651460FF60C3002F004
S1131330D9FCF96CF07902910028F96A019114BF83
S113134001A002A004E000BF657874007374640017
S113135000900723424651460FF6DC2002F0C2FCFF
S11313600498DBF874209DF83410007804F007FD2D
S113137030B1119B0FF6FC204246514602F0B2FCFC
S113138004980078002104F011FD31E004980078FD
S1131390012104F0EAFB0023424651460FF61C30BB
S11313A002F0A0FC0026049800784FF4E063324673
S11313B0002104F0F4FB40B200903346424651460B
S11313C00FF6343002F08EFC012000904FF4E063FD
S11313D004983246002101F065FD009033464246F0
S11313E051460FF6583002F07DFC761C0E2EDADBE7
S11313F00498007838B94FF4007002F040FD0E20D4
S113140002F03DFD2EE69DF92B00022815D142463F
S113141051460FF6643002F065FC40F2062002F0FB
S11314202EFD4FF4037002F02AFD40F20D2002F06D
S113143026FD082002F02DFD0EE040F2062002F009
S113144028FD4FF4037002F024FD40F20D2002F059
S113145020FD082002F013FD142004F09BFF4FF43C
S11314600170CDE7641CA9F1010916D02078752814
S113147008D10DF11601601C01F0CCFF10B1641D00
S1131480A9F1050914F8010B0D280DD0432251468A
S11314900FF6143002F026FCCDE5DFF89816DFF8DD
S11314A0980602F01FFCEDE701208DF81500A9F164
S11314B001090498007828B94FF4007002F0E9FC9F
S11314C00E2001E04FF4017002F0E3FC0498007870
S11314D0010008BF4FF4836002D0012804D10A2020
S11314E002F0CDFC002300E00323432251460FF613
S11314F0E82002F0F7FB049801F092FB0346432234
S113150051460FF6143002F0EDFB00208BF8120068
S11315109DF834209DF82810049801F0ABFF38B9E9
S1131520432251460FF6283002F0DCFB02F01BFE8A
S1131530386800281CBF7968002932D002F0ECFA20
S113154078B30246DFF8D418DFF8D40802F0CAFBF7
S1131550432251460FF62C3002F0C4FB02F003FE86
S11315600498FFF755FB38B9432251460FF648302B
S113157002F0B8FB02F0F7FD00208DF82A000720E6
S11315808DF82B0001208DF82900102009900220ED
S11315908DF8280000208DF83400642004F0FAFE51
S11315A060E50020B86010207860802002F067FABF
S11315B0386040B9DFF86418DFF8680802F092FB7D
S11315C000207860C4E70020B860C9E78DF81400F3
S11315D09DF82A00012805D151460FF6183002F073
S11315E081FB28E5542A0AD101208DF81400002536
S11315F0B9F1040F0DDA9DF8140068B910E0522A0D
S113160003D101208DF8140001E0722AEFD10125E5
S1131610EEE7B9F1090F53DA9DF8140000284FD012
S113162051460FF6FC2002F05DFB079803F0C4FA64
S1131630012004F0AFFEBDF81A00012102F087FF7B
S113164000280790F4D000F111040088A0F11109DA
S11316500D250020ADF816002278432A90463FF469
S113166001AF462A00F06D83472A00F091824C2A8C
S11316703FF47EAC4D2A00F020814F2A3FF480AC29
S1131680522AA5D0532A08D0542AA1D06D2A52D068
S1131690722A18BF742A99D076E3B9F1030FFFF6C2
S11316A0E1AC9BF8120000281CBF9DF82A00012819
S11316B03FF4E4AB51460FF6902002F013FBBAE47A
S11316C0009512AA9DF81430A9F10101601C01F0E3
S11316D022FD48BB9BF81200F8B19DF84C00129B08
S11316E08DF8080002AA149803900E21049800783B
S11316F004F0DCFA58B9019515A8009002AA0498E0
S1131700129B00780E2104F0F0FA30B98DE7DFF86F
S11317101817DFF8180702F0E5FA424651460FF6AB
S1131720682002F0DFFA80E7424651460FF68C202B
S113173002F0D8FA7FE4B9F10A0F02DB9BF8120039
S113174038B19BF812300FF6CC30514602F0CAFA89
S113175071E43868641C28B951460FF6842002F0FD
S1131760C1FA68E4B8687968884206D351460FF62E
S11317709C2002F0B7FA0020B8603868BA680821E3
S113178000EBC20004F0CEFF2278522A06D0542A7D
S113179010D0722A08D0742A19D012E03868B968B7
S11317A000EBC1000121417001203968BA6801F8D9
S11317B032000CE03868B96800EBC10001214170C7
S11317C005E051460FF6882002F08CFA07253868A8
S11317D0B968641C00EBC100A9F10209061D002CC4
S11317E0A9F1010051D0C0B2082801DA00284CD177
S11317F0002E4AD0002030606946204601F00AFEDF
S1131800002848D0BDF8000030606946201D01F072
S113181001FE00283FD03068BDF8001041EA0040C6
S113182030606D22BB68386800EBC300083441683F
S11318300291A9F10809417801915146007800907C
S11318400FF6342002F04EFA6CB32078752808D1D4
S11318500DF11601601C01F0DDFD10B1641DA9F14C
S1131860050914F8010B0D2822D06D2251460FF6FC
S1131870442002F037FA3868BA68082100EBC20045
S113188004F050FF0725FFF7F8BBDFF8A415DFF8D5
S1131890A40502F027FA6D2251460FF64C2002F0FF
S11318A021FAFFF7C8BBA349A34802F01BFAD8E703
S11318B0B868401CB860FFF747BBB9F10A0F02DBF8
S11318C09BF8120040B19BF812300FF648205146A5
S11318D002F008FAFFF7AFBB14F8010F462818BF4F
S11318E06628A9F1010921D0DBF8740030B951460A
S11318F00FF6542002F0F6F9FFF79DBBDBF87C00ED
S1131900DBF87810B0EBD10F07D351460FF6642003
S113191002F0E8F90020CBF87C00DBF87400DBF877
S11319207C20082100EBC20004F0FCFE00268DF8A8
S113193000602378462B23D0522B08D0542B16D08A
S1131940662B21D0722B0AD0742B26D01EE0DBF834
S11319507400DBF87C1000EBC1000121417001220E
S1131960DBF87400DBF87C1000F8312015E0DBF8BC
S11319707400DBF87C1000EBC100012141700CE025
S113198001268DF8006008E0012606E04D2251464C
S11319900FF6242002F0A6F90725641C002EA9F1F5
S11319A0010960D0787B810800EB5171C908A0EB74
S11319B0C10078739DF8000028B104997A7B114422
S11319C0012081F8CC0100208DF819000DF11903D4
S11319D00E9A4946204601F050FC38B14D2251463A
S11319E00FF6082002F07EF9FFF725BB9DF81900D9
S11319F02418A9EB00097B7B049800EB83004D229B
S1131A00D0F8A41102915146D0F8840101900498B1
S1131A10184490F8CC0100900FF6082002F062F907
S1131A20002C71D02078752808D10DF11601601CA6
S1131A3001F0F0FC10B1641DA9F1050920780D280E
S1131A4000F09980002E00F085804D2251460FF65B
S1131A50242002F047F904987A7B00EB82001B21D2
S1131A60D0F8A40183E0DBF87400DBF87C1000EB11
S1131A70C100001D0190A9F1010094B3C0B208286F
S1131A8000DA70BB019860B30199002008606946D0
S1131A90204601F0BFFC40B30199BDF80000086086
S1131AA06946201D01F0B6FCF8B10198BDF800109C
S1131AB0006841EA004001990860DBF87C30DBF8FB
S1131AC0740000EBC300083441680291A9F10809CD
S1131AD0417801914D220078009051460FF6D410C0
S1131AE09CE7D349D34802F0FDF84D2251460FF646
S1131AF0082002F0F7F8FFF79EBA00BF808D0100BE
S1131B0060290000908D01000A490B4802F0EAF8B0
S1131B1094E700BFAC8D0100D88D0100048E010054
S1131B202C8E01005C8E0100988E0100F48E010061
S1131B30BC8E01009C380000B03800002C8F0100DE
S1131B40588F01008C8F0100C08F0100F08F0100BD
S1131B50209001004D2251460FF6D01002F0C2F839
S1131B60DBF87400DBF87C20082100EBC20004F0F1
S1131B70D9FDFFF760BA26B1787B401C7873FFF774
S1131B80E2B9DBF87C00401CCBF87C00FFF7DBB942
S1131B90B9F1040F06DA51460FF6D01002F0A2F89C
S1131BA0FFF749BA63784D2BA9F1010504D0662BE0
S1131BB004D06D2B06D102E0012000E002208DF854
S1131BC0180004E051460FF6D81002F08BF8A41C5C
S1131BD06E1E20460025022190F90020491E1300A4
S1131BE030D0A2F130030A2B38BF303A0AD3A2F125
S1131BF04103062B38BF373A04D3A2F16103062B05
S1131C0020D2573A401C002902EB0515E4D1A41C4C
S1131C10A6F102091ED02078752808D10DF116010D
S1131C20601C01F0F7FB10B1641DA9F105092078CF
S1131C300D2816D0472251460FF69C1002F052F898
S1131C40FFF7F9B9472251460FF6BC1002F04AF8E3
S1131C50FFF7F1B9DFF8BC1EDFF8BC0E02F042F862
S1131C60E5E747208DF85C00A9F101099DF818000B
S1131C70E0B1022801D00AD327E0EDB2082D22DA20
S1131C800E980DF15D02294601F020FD19E0DBF804
S1131C907800EDB2B5EBD00F15D2DBF874000DF17E
S1131CA05D0100EBC50001F0FAFC0AE07868EDB2D2
S1131CB0854208D238680DF15D0100EBC50001F0E2
S1131CC0E0FC441C03E0002401E04FF0FF3464B264
S1131CD06CB304980078801CC0B203F01AF80600B4
S1131CE007D1472251460FF6501001F0FBFFFFF7D2
S1131CF0A2B9224617A906F10D0004F017FD3473AA
S1131D0004980078811CC9B2304603F020F850B919
S1131D1004980078831C472251460FF64C1001F0BA
S1131D20E1FFFFF788B90D250024FFF79BB9EDB259
S1131D30009547229DF818300FF668105146FFF7BA
S1131D4078B9641CA9F1010917D02078752808D145
S1131D500DF11601601C01F05DFB10B1641DA9F1C9
S1131D60050920780D283FF4EEA8462251460FF6C7
S1131D70641001F0B7FFFFF75EB9DFF8981DDFF8D4
S1131D80980D01F0AFFFECE7CDF8009013465146F3
S1131D900FF6641001F0A6FF47E40020307306F14B
S1131DA00D04BDF8160040B102460FF68C11204612
S1131DB001F0A6FF05203073641D2570307B401CA4
S1131DC0307304980078811CC9B2304602F0BFFF1A
S1131DD000287FF430AC04980078821C51460FF63A
S1131DE0601001F07FFF26E4A090010068900100DC
S1131DF0D09001004AA4FF1FD8290000F8900100E8
S1131E002C91010074910100A8910100F09101004E
S1131E103492010070920100381E0000F037000077
S1131E20083800002C380000A0300000B830000052
S1131E30243700003437000025733A494E464F2CAE
S1131E4020636173652025632C20466C6F77636F74
S1131E506E74726F6C207461626C655B25303164E2
S1131E605D3A202573203A2025303878203A202501
S1131E70730A000025733A4552524F522C20636175
S1131E8073652025632C200D0A20464C4558434198
S1131E904E5F4452565F436F6E6669675278466977
S1131EA0666F206661696C65642E20726573756C5B
S1131EB0743A203078256C780000000025733A4984
S1131EC04E464F2C20636173652025632C20466C9D
S1131ED0657843616E4465766963655F53657452E2
S1131EE0784D61736B54797065282029207265746C
S1131EF075726E2025640A0025733A494E464F2CAC
S1131F0020636173652025632C20466C65784361EA
S1131F106E4465766963655F5365745278496E648F
S1131F206976696475616C4D61736B2025642072F8
S1131F30657475726E2025640A00000025733A49A1
S1131F404E464F2C20636173652025632C20466C1C
S1131F50657843616E4465766963655F7365744D46
S1131F6061696C626F782025642072657475726E85
S1131F702025640A0000000025733A494E464F2C80
S1131F8020636173652025632C2053657420656C80
S1131F90656320666F2033332E33332062617564AA
S1131FA0726174650A00000025733A4552524F521B
S1131FB02C20636173652025632C20636C6F73652B
S1131FC020636F6D6D616E642C200D206E6F742024
S1131FD0666F756E640A000025733A494E464F2CAD
S1131FE020636173652025632C20466C657843610A
S1131FF06E4465766963655F5365745465726D6993
S11320006E6174696F6E2820292072657475726E12
S11320102025640A0000000025733A494E464F2CDF
S113202020636173652025632C20466C65784361C9
S11320306E4465766963655F4465496E69742820FA
S1132040292072657475726E2025640A00000000F0
S113205025733A4552524F522C20636173652025F3
S1132060632C20616C6C6F636174696E67204649F0
S1132070464F2049442066696C746572207461621D
S11320806C650A0025733A4552524F522C20636105
S113209073652025632C20616C6C6F636174696EB9
S11320A067204649464F204944206D61736B207474
S11320B061626C650A00000025733A4552524F5222
S11320C02C20636173652025632C20616C6C6F6325
S11320D06174696E6720666C6F7720636F6E7472CB
S11320E06F6C206D657373616765732062756666D6
S11320F065720A0025733A4552524F522C2063618F
S113210073652025632C2043414E20696E206C6941
S11321107374656E6572206D6F64650A000000005B
S113212025733A4552524F522C2063617365202522
S1132130632C2043414E207472616E736D69742068
S1132140666F726D61740A0025733A4552524F529C
S11321502C20636173652025632C205472696564A7
S113216020746F206368616E6765206261756472B4
S1132170617465207768656E2043414E2069732041
S11321806F70656E0A00000025733A4552524F5233
S11321902C20636173652025632C20466C6578438D
S11321A0616E4465766963655F54784D65737361E8
S11321B06765206661696C65640A000025733A45A9
S11321C052524F522C20636173652025632C206486
S11321D065636F6465206D6573736167650A0000EC
S11321E025733A4552524F522C2063617365202562
S11321F0632C20704649464F49644D61736B5461AA
S1132200626C65204E554C4C0A00000025733A4917
S11322104E464F2C20636173652025632C204F7636
S113222065727772697465204649464F204D617323
S11322306B207461626C652C204649464F4D617376
S11322406B5461626C65496E64783D300A0000002D
S113225025733A4552524F522C20636173652025F1
S1132260632C20696E636F7272656374206D73678B
S113227020747970650A000025733A494E464F2C44
S113228020636173652025632C20536574204649BF
S1132290464F204D61736B5B25645D205254522080
S11322A02564204944452025642076616C202578E6
S11322B00A00000025733A4552524F522C206361A4
S11322C073652025632C20736574206D61736B2006
S11322D0636F6D6D616E642C200D206E6F742066CB
S11322E06F756E640A00000025733A4552524F52CE
S11322F02C20636173652025632C207061727369DF
S11323006E67204649464F204944204D41534B0AAD
S11323100000000025733A4552524F522C2063614D
S113232073652025632C20696E636F727265637414
S1132330206D73672073697A652C2063616E496E22
S113234073742025640A000025733A4552524F5293
S11323502C20636173652025632C207365742046EB
S113236049464F204944207461626C65204E554CA7
S11323704C0A000025733A494E464F2C2063617382
S1132380652025632C204F76657277726974696EB7
S113239067204649464F2049442046696C7465725B
S11323A0207461626C65204649464F5461626C65D5
S11323B0496E64783D300A0025733A4552524F52B3
S11323C02C20636173652025632C2070627566661A
S11323D03D25632C20696E636F7272656374206D92
S11323E0736720747970650A0000000025733A450C
S11323F052524F522C206361736520256320664638
S11324002C206465636F64696E6720666C6F772047
S1132410636F6E74726F6C206D6573736167652092
S11324200A00000025733A494E464F2C206361731D
S11324306520256320547452722C205365742066E1
S11324406C6F77636F6E74726F6C207461626C650D
S11324505B25645D204944453D25642C206D7367EC
S113246049643D257820726573706F6E73653D25F0
S1132470730A000025733A4552524F522C2063616F
S113248073652025632066462C2073657420666C72
S11324906F77636F6E74726F6C20636F6D6D616EB6
S11324A0642C200D206E6F7420666F756E64200A94
S11324B00000000025733A494E464F2C2063617397
S11324C06520256320547452722C20536574204671
S11324D049464F207461626C655B25645D205254EB
S11324E0523D25642C204944453D25642C207661C9
S11324F06C3D25780A00000025733A4552524F522C
S11325002C206361736520256320547452722C203F
S11325107061727365204649464F204944207461B6
S1132520626C652076616C75650A000025733A4516
S113253052524F522C2063617365202563205474DA
S113254052722C20736574204649464F204944201A
S113255066696C746572207461626C652C200D2050
S11325606E6F7420666F756E640A000025733A20DE
S11325704552524F522C20636173652025632C20F1
S1132580696E636F72726563742073697A65206F14
S1132590662067657420726571756573740A00003E
S11325A025733A4552524F522C206361736520259E
S11325B0632C206765745F6D65737361676520497B
S11325C06E76616C696420747970652C206275661E
S11325D0663D25630A00000025733A4552524F5266
S11325E02C20636173652025632C206765745F6DFF
S11325F06573736167652C200D206E6F7420666FA0
S1132600756E640A0000000025733A4552524F5219
S11326102C20636173652025632C206765745F6DCE
S11326206573736167652070617273696E67206991
S11326306E6465780A00000025733A4552524F5281
S11326402C20636173652025632C20676574206DDD
S1132650656D20666F722055534220726573706FEA
S11326606E73650A0000000025733A4552524F52BA
S11326702C20636173652025632C2073656E646967
S11326806E67206765745F6D65737361676520723B
S1132690657370206461746120746F204344435FE8
S11326A025640A0025733A4552524F522C20636127
S11326B073652025632C206D6573736167655F7492
S11326C07970653D2564202C696E6465783D2564C8
S11326D00A00000025733A4552524F523A256320AE
S11326E0636F6D6D616E642C200D206E6F742066B7
S11326F06F756E640A00000025733A4552524F52BA
S11327002C20636173652064656661756C742C208C
S1132710436F6D6D616E64206E6F74207265636FBC
S1132720676E697A65642025632025642073697A5D
S1132730652025640A000000752530347800000007
S113274025733A4552524F522C2073656E642064AF
S113275061746120746F204344435F25640A000060
S11327602DE9F84F054601F0C6FC02460B460FF270
S1132770E01B0FF2EC10594601F0B4FA2A780DB1BF
S1132780022A06DB59460FF2EC1001F0ABFABDE861
S1132790F18F59460FF208200FF2202801F0A2FA17
S11327A095F8060108B90220C7E028780022694696
S11327B003F009FD002840F0BF804FF00009002419
S11327C002E0012003F0E6FD4FF4AA7028440089DA
S11327D0C04621283EBF21464C1C0229F1D30028C3
S11327E000F0AA80044686B92878801CC0B202F0A2
S11327F090FA060005D159460FF2DC1001F072FA86
S11328008AE0002006F10D0930734FF4AA702844C1
S113281001F09FFD070070D04FF4C0702A1849469C
S1132820384600F094FE82464FF4A270394628449C
S113283001F073FD95F88001FF2833D0DFF89C0880
S1132840006802F0E5F8070005D159460FF2AC1014
S113285001F048FA26E095F88001291805EB80007C
S113286091F8C421D0F8A41107F1110003F05EFF20
S11328700121002001F0E7FDB880287800281ABF64
S113288003210020022101F0DEFD788095F880010B
S1132890284490F8C4011130388002203874384636
S11328A001F078FFBAF1000F05D559460FF2781000
S11328B001F018FA19E0307BDFF824185044307323
S11328C0C0B20988081A20280EDA2878811CC9B2F7
S11328D0304602F03CFA4FF0000918B95946404618
S11328E001F000FA002600E0D144DFF8F807DFF831
S11328F0F4178068401C88600EE02878811CC9B2F7
S1132900304602F024FA18B95946404601F0EAF973
S1132910022003F03FFD0026641E7FF464AF5EB125
S11329202878811CC9B2304602F011FA18B9594608
S1132930404601F0D7F90026012003F02BFDDFF813
S1132940A807007800283FF42BAFBDE8F18F000002
S1132950464C455843414E5F52785F5461736B0057
S113296025733A207374617274656420256C6C75E8
S11329700A00000025733A4552524F522C43414EEF
S11329805F52582074687265616420696E636F7267
S11329907265637420706172616D2025750A000090
S11329A025733A494E464F204C6F6F7020696E7301
S11329B074616E6365202575200A000025733A450D
S11329C052524F522073656E6420646174612074A6
S11329D06F20434443310A0025733A4552524F5203
S11329E02C20676574206D656D20666F72205553C9
S11329F04220726573706F6E73650A0025733A45E1
S1132A0052524F523A20617070206D657373616742
S1132A106520616C6C6F636174696F6E20666169B7
S1132A206C65640A0000000025733A4552524F5207
S1132A3020706172732043414E20746F205374726E
S1132A40696E670A00000000F8B50E00054601D063
S1132A50022D01DB00F012BE4FF4EA71DFF88C06A0
S1132A6011FB05F14418802104F1700003F05AFEB3
S1132A7004F1FC07B079B87100217079787130687D
S1132A80401E386030793871F079787201203872DC
S1132A904FF48670204403F00CFF064640B258B150
S1132AA073B22A460FF2A0010FF2700001F01AF976
S1132AB0002038724FF0FF36BD6E45B34FF4AA7054
S1132AC0271802E0384601F044FC384601F068FC5F
S1132AD00028F7D04FF4A2702718384601F060FCA4
S1132AE018B9384601F035FCF4E780242946384605
S1132AF001F013FC40B90FF250010FF2680001F02D
S1132B00F1F84FF0FF3602E01835641EEED170B2D2
S1132B10F2BD00009C380000B038000025733A452F
S1132B2052524F522C20696E6974206D7574657809
S1132B3020666F7220696E7374616E6365202575FB
S1132B40202D2025780A0000466C657843616E4488
S1132B5065766963655F496E6974496E7374616E05
S1132B606365000025733A4552524F5220616464F4
S1132B7020656C656D656E7420746F207175657564
S1132B80650A000038B50C46002558B101460020FE
S1132B90FFF75AFF050005D50FF24C010FF2240090
S1132BA001F0A0F85CB121460120FFF74DFF0500BC
S1132BB005D50FF234010FF2440001F093F82846D2
S1132BC032BD000025733A4552524F5220496E6976
S1132BD07469616C697A696E6720696E7374616E79
S1132BE0636520300A000000466C657843616E44DA
S1132BF065766963655F496E6974000025733A45BB
S1132C0052524F5220496E697469616C697A696ED7
S1132C106720696E7374616E636520310A00000079
S1132C2038B5040001D1032032BD94F80401F0B199
S1132C30012084F84001204600F0B0F8050006D0D9
S1132C402A460FF250010FF2280001F04BF84FF41E
S1132C508670204403F0DFFD28B10FF238010FF233
S1132C604C0001F03FF8002084F80401284632BDEE
S1132C7025733A4552524F5220466C657843616E33
S1132C804465766963655F53746F70202D202578E1
S1132C900A000000466C657843616E44657669639A
S1132CA0655F4465496E69740000000025733A4508
S1132CB052524F52205F6D757465785F646573740A
S1132CC0726F790A0000000070B5040001D103207E
S1132CD070BD4FF482702518287840B90FF2700146
S1132CE00FF23C0000F0FEFF4FF0FF3070BD207883
S1132CF004F1FC02211D02F068FF46B23246012AAB
S1132D0007DB0FF24C010FF25C0000F0EBFF3046E2
S1132D1070BD95F901102046BDE870404DE00000FB
S1132D2025733A4552524F522C20496E7374616E8A
S1132D306365206E6F7420696E697469616C697A69
S1132D40656420636F72726563746C790A000000B5
S1132D50466C657843616E4465766963655F537458
S1132D60617274000A25733A4552524F523A464CE6
S1132D70455843414E20696E697469616C697A6192
S1132D8074696F6E206661696C65642E2072657368
S1132D90756C743A2030782578200A0010B5040048
S1132DA001D1032010BD94F8060128B1207803F066
S1132DB006F8002084F8060110BDF8B504001FBF12
S1132DC04FF482702618307800280D4601D00A2D61
S1132DD001DB0320F2BDDFF81803217850F821004D
S1132DE0001D400100F184403430006800281ABFFF
S1132DF001210020002103F0DBFF074677603A46FB
S1132E000FF268010FF2800000F06CFF7068DFF8C9
S1132E10E41288420ED0DFF8E012884213D1DFF8C2
S1132E20DC0205EB850100EB8101207802F094FEC1
S1132E3040B2F2BDDFF8C40205EB850100EB81006E
S1132E4000F16401F1E7DFF8B802C01942F2107131
S1132E50884209D2DFF8A40205EB850100EB81006A
S1132E604FF496710144E0E70420F2BD466C6578A6
S1132E7043616E4465766963655F53657442697442
S1132E80726174650000000025733A494E464F3A5A
S1132E90466C657843616E20636C6F636B202575A7
S1132EA00A0000002DE9F04F050083B0894616465C
S1132EB09B4607D095F8060110B94FF0FF3070E03B
S1132EC0102E01D303206CE005EBC60000F170075F
S1132ED038780C9CB04204BF7868584506D1B8785D
S1132EE0884202BF7878A04200205AD04FF48670FE
S1132EF097F801A03E7005EB00082000C7F804B065
S1132F0087F802907C7040463ED003F01FFD5B467C
S1132F1032464946284600F0F5F883460FF28C09FC
S1132F200FF2A40033465A46494600F0DBFEA245A0
S1132F3025D0B8788DF80000324608200190494623
S1132F400FF2B80000F0CEFE7B6828786A4631465E
S1132F5002F0E0FE41B229B142B249460FF2C80084
S1132F6000F0C0FE39782878002202F013FF4FFAEF
S1132F7080FB5A4649460FF2F00000F0B3FE40468B
S1132F8003F097FD58460CE003F0E0FC00233246C2
S1132F904946284600F0B6F80446404603F089FD49
S1132FA0204603B0BDE8F08F00000000466C657851
S1132FB043616E4465766963655F7365744D6169E9
S1132FC06C626F78000000000A25733A494E464F40
S1132FD02C20466C657843414E20536574527849E1
S1132FE06E646976696475616C4D61736B2072659A
S1132FF074202575204D422025780A000A25733A4D
S1133000494E464F2C20466C657843414E204D4234
S1133010207265636569766520636F6E66696720F3
S11330204D422025780A00000A25733A4552524F32
S1133030522C20466C657843414E205258204D4214
S113304020636F6E66696775726174696F6E20665E
S113305061696C65642E20726573756C743A2030F6
S113306078256C780A0000000A25733A494E464FC9
S11330702C20464C455843414E5F4452565F52788B
S11330804D6573736167654275666665722E20725D
S11330906573756C743A203078256C78200A0000CA
S11330A0466C657843616E4465766963655F547800
S11330B04D6573736167650025733A4552524F52EB
S11330C02C20464C455843414E5F4452565F436F53
S11330D06E66696754784D620A000000A4ABFF1F56
S11330E0F0A201002C93FF1F4AA4FF1FF485FF1FC9
S11330F08CA20100006CDC0200879303A8A9FF1FC7
S11331004FBE87FB80B508B9032002BD007802F0EA
S113311046FD40B202BD2DE9FC4789465FEA00083E
S113312018BFB9F1000F16461C464FF0030A00D031
S113313016B90320BDE8F6871421304603F0F2FAED
S11331403471012C08BF4FF0080ACAF10000304462
S113315000F10B020A9800212CE033684FEA031CAB
S1133160C6F800C0C646002301249EF90050641E20
S1133170002D7BD0A5F130070A2F38BF303D0AD38C
S1133180A5F14107062F38BF373D04D3A5F16107E8
S1133190062F6BD2573D002C05EB03130EF1010EE5
S11331A0E3D103F00F0343EA0C03336008F1010891
S11331B0491C521C98F900300D2B5BD0B9F1020F59
S11331C058D35145C9D38A4525D1C44600234FF06D
S11331D0010E9CF90040002CAEF1010E46D0A4F182
S11331E030070A2F38BF303C0AD3A4F14107062F19
S11331F038BF373C04D3A4F16105062D36D2573CC1
S1133200BEF1000F04EB03130CF1010CE1D103F048
S11332100F03B360CAE7030024D1C44600234FF070
S1133220020E9CF90040AEF1010EFCB1A4F130078E
S11332300A2F38BF303C0AD3A4F14107062F38BF08
S1133240373C04D3A4F16105062D0FD2573CBEF1DF
S1133250000F04EB03130CF1010CE2D1137008F11D
S1133260020801E008F101088945A1D24FF0FF30BE
S1133270BDE8F6870020BDE8F6872DE9F84F9146B2
S1133280040099F801701CBF0029B9F1000F1D4614
S11332904FF0030802D10320BDE8F28F09EB870643
S11332A01B21706A03F03EFAB944002089F84400F7
S11332B0706099F84C0058B3716A542008704FF04C
S11332C0080899F84400401C89F8440004F11001EE
S11332D00020012291F90030521EABB10001A3F18C
S11332E030070A2F38BF303B0AD3A3F14107062F1A
S11332F038BF373B04D3A3F16107062F04D2573BF1
S11333001818491C002AE5D1400000F1090726E0FD
S1133310716A74200870A11D99F84400401C89F852
S113332044000122002091F90030521EABB100018B
S1133330A3F130070A2F38BF303B0AD3A3F141076A
S1133340062F38BF373B04D3A3F16107062F04D2FD
S1133350573B1818491C002AE5D14000071DFFB24D
S1133360002010E0AEF1570E521CBCF1000F0EEB22
S1133370031315D103F00F0211437160641C297803
S1133380491C2970401C94F900100D2928D040458F
S113339026D2716809017160224600234FF0010CA6
S11333A092F900E0BEF1000FACF1010C14D0AEF1C3
S11333B0300BBBF10A0F38BFAEF1300ED4D3AEF1EF
S11333C0410BBBF1060F38BFAEF1370ECCD3AEF1D3
S11333D0610ABAF1060FC5D34FF0FF30BDE8F28F92
S11333E0706A3A462146401C03F0A0F999F844005B
S11333F0381889F84400C0B2726A0D21115499F842
S11334004400401C89F844002878381828700020AB
S1133410BDE8F28F70B5002818BF002906D10FF25D
S113342030310FF2403000F05DFC1FE000220A80D2
S113343004220B881B010B80521E0478A4F1300671
S11334400A2E07D2303C401CE318002A0B80F0D12E
S1133450012070BDA4F14106062E38BF373CF2D3DB
S1133460A4F16105062D38BF573CECD3002070BD94
S11334700000000070B500280D46164638D04FF401
S1133480B4714418206800281CBF616800290BD05F
S113349000F042FB020007D00FF2E4210FF2F82003
S11334A000F020FC002070BD0020032EA06019D87D
S11334B0DFE806F002121502681C8001606000F06B
S11334C0DEFA206088B90FF2B8210FF2F42000F080
S11334D009FC0020606070BD681CC001EEE7681C38
S11334E04002EBE76060206070BD0020A060012016
S11334F070BD00B9704710B54FF4BA714418206814
S113350000281CBF616800290BD000F005FB0200F5
S113351007D00FF2DC210FF2F02000F0E3FB0020D3
S113352010BD0020A06010206060802000F0A7FA89
S1133530206040B90FF2B8210FF2F02000F0D2FB66
S11335400020606010BD0020A060012010BDF8B50F
S113355004000F4618BF002F154606D10FF2FC21B8
S11335600FF2103000F0BEFB88E0A068410DC002ED
S113357001F0010204D5722002B15220012603E0B9
S1133580742002B1542000263870002AE26808D062
S11335900FF2F821781C00F0B3FB07F109010A20AF
S11335A006E00FF2F021781C00F0AAFB391D05207B
S11335B0A268120C02F00F0303F1300201F8012B90
S11335C0C6B9012B16DB1818181804F11006327846
S11335D012090A2AACBF373230320A70327802F04C
S11335E00F020A2AACBF373230324A70891C761C6B
S11335F05B1EECD1C91C00230426A268DA4002F049
S11336000F020A2AACBF373230321B1D761E01F876
S11336100129F2D1227C401D102A29D16B68002295
S113362043B3E4689C4224D0AB68012213B39C42A8
S11336301FD0EB680222EBB19C421AD02B69032203
S1133640C3B19C4215D06B6904229BB19C4210D03B
S1133650AB69052273B19C420BD0EB6906224BB1D6
S11336609C4206D02B6A072223B19C4202D100E07F
S1133670FF222A700D224A71C0B2F2BD4FF0FF3012
S1133680F2BD10B50278437823B1002A14BF522248
S1133690542203E0002A0CBF742272220CE010B5FD
S11336A00278437823B1002A14BF5222542203E043
S11336B0002A0CBF742272220A704C1C42680FF25A
S11336C0CC11204600F01CFB092010BDF8B54518AC
S11336D000EB810495F84C00164658B1462006F8D4
S11336E0010B304662680FF2A41100F009FB0836A2
S11336F009270AE0662006F8010B304662680FF2DB
S1133700941100F0FDFAF61C042795F84400616A50
S1133710421E304603F00AF895F84400C019401ED2
S113372040B2F2BD706172736541736369546F5541
S1133730496E740025733A4552524F52207061729B
S1133740736541736369546F496E740A0000000025
S1133750706172736541736369546F53686F7274F7
S11337600000000025733A4552524F522070617296
S1133770736541736369546F53686F72740A000010
S1133780416C6C6F636174654649464F46696C745D
S113379065725461626C650025733A4552524F520A
S11337A0282564292066726565204649464F2066AF
S11337B0696C746572207461626C650A00000000B3
S11337C025733A4552524F5220616C6C6F63617499
S11337D065204649464F2049442066696C746572E9
S11337E0207461626C6520656C656D0A00000000E0
S11337F0416C6C6F636174654649464F4D61736BF0
S11338005461626C6500000025733A4552524F5270
S1133810282564292066726565204649464F206D37
S113382061736B207461626C650A000025733A450C
S113383052524F522C20616C6C6F63617465204648
S113384049464F2049442066696C7465722074614E
S1133850626C6520656C656D0A00000050617273CE
S11338606543616E4D657373546F537472696E670B
S11338700000000025733A4552524F522C207772B3
S11338806F6E6720706172616D730A00253038783D
S113389000000000253033780000000043686563B1
S11338A06B436F6D6D616E64496453757070000095
S11338B025733A4552524F522C20706172616D0A41
S11338C0000000002DE9F047044688461546994655
S11338D00027A868DFF80414884203D0382003F0D6
S11338E074FC57E004F10C00102838BF10200F308E
S11338F00409240103F070FE6E69D5F814A001E0F8
S1133900B246B668B6B3AE6103F074FE03F064FE6B
S1133910A869864202D06E69B2465EB33068A0429E
S1133920EED3011B102906D3301901604560B1683C
S11339308160346001E00446B06869698E420CBF5E
S11339406861CAF80800D8F80C0030817781756086
S113395030688019401EE96A814238BFE862B9F1D3
S1133960000F05D0A4F10C0106F10C0002F0DAFE00
S113397006F10C076869A8616869E86168692862EA
S1133980E8686862E868A86203F034FE17B90420A6
S113399003F01BFC3846BDE8F0872DE9F8430746E1
S11339A0884691461D460026A868DFF830138842F1
S11339B003D0382003F009FC5CE007F10C00102868
S11339C038BF10200F3007093F0103F005FE6C6972
S11339D000E0A468002C3DD0AC6103F00BFE03F0C2
S11339E0FBFDA869844201D06C699CB32068A8F1EE
S11339F00C0104F11002914221BF211808EB0702C7
S1133A000C3A9142E5D3A8F10C010A1BC01B801AA1
S1133A102260102806D3CA1910605560A06890600F
S1133A20A26001E0C719A2680F608A60D9F80C008F
S1133A3008814E814D6020680019401EE96A814268
S1133A4038BFE862089820B1A7F10C01404602F0A3
S1133A5069FE46466869A8616869E8616869286220
S1133A60E8686862E868A86203F0C4FD16B9042037
S1133A7003F0ABFB3046BDE8F283002300E00123F2
S1133A80DFF85C120968D1F81C23DFF854120968C6
S1133A90C96917E7F8B504460D461646DFF8400233
S1133AA00768A81900090001206105F10F00000949
S1133AB00001E060E0622169091A0160002181606F
S1133AC044606061A061E061206203F085FDD7F885
S1133AD00C0328B900214FF44370384403F054FE1A
S1133AE021464FF44370384403F055FE03F082FD41
S1133AF0DFF8E801A060B5F1005F0BD2A819B0F1BE
S1133B00005F07D3002000902346FA694FF000516C
S1133B10FFF743FF2046F2BD70B5DFF8C411096812
S1133B2000B9BDE0A0F10C046568A868DFF8AC2119
S1133B30904204D0382003F048FB382070BD20891F
S1133B40C969C96889B288421CBF4FF6FF718842AF
S1133B5000D0AAE003F040FD08E00646EE6103F061
S1133B6049FD03F039FDE869864200D06E69686951
S1133B7010B16869844212D26E6920682044B04250
S1133B800AD12068316808182060B068A06000205D
S1133B900021002207C600E0A6606C6126E0B06840
S1133BA0844201D30028D8D120682044B1688842D7
S1133BB00BD12068096808182060B0688068A0608C
S1133BC00C21B06802F0AEFD00E0A1603068304422
S1133BD0A0420AD13068216808183060A068B0603B
S1133BE000200021002207C400E0B4606869A861D5
S1133BF06869E86168692862E8686862E868A862D8
S1133C0003F0F8FC002070BD00235DE080B5DFF810
S1133C10D0000268D2F8D801C2F81C0300F13001C8
S1133C20D2F8DC21521AFFF735FF002002BDF8B5A7
S1133C300446DFF8AC00056819B9D5F80C63F768D9
S1133C4004E0A1F10C0046680168471803F0C4FCC5
S1133C50706901E039680F4431698F4210D23989A3
S1133C60E26892B29142F5D100E0806808B1B842AE
S1133C70FBD3B842EED003F0BDFC07F10C00F2BD5B
S1133C803668F7684FF4437028448642E0D103F065
S1133C90B1FC0020F2BD10B120F8021C01207047D5
S1133CA0012003F092FA012070BD032003F08DFA85
S1133CB0032070BDC96820F8041C7047D16820F83F
S1133CC0041C00207047012305490968D1F81C230E
S1133CD0034909685031FFF7F5BD000070656D6C4C
S1133CE0ACB4FF1F0EB400B582B003A90091034623
S1133CF04FF0FF320B490C48406803F0D6FD0EE04C
S1133D000DB400B582B004A800900B464FF0FF320A
S1133D10064903A803F0C9FD0021039A117006BCEB
S1133D205DF810FBEDA00100E8B4FF1F7D820000E8
S1133D3038B504000D4608D003E0204600F010F822
S1133D400C34206810F1010FF7D145B103E0284687
S1133D5000F057F80C35286810F1010FF7D131BD88
S1133D602DE9F04104462068C0F3072500F0FF0662
S1133D70634850F82570634850F82580284603F0BE
S1133D802AF858F826006049084040F4807048F842
S1133D90260000223146384604F075FA08EB860006
S1133DA04001217900F1844242F8041F00F1844269
S1133DB06179116000F18440A17940F8101FD8F8AE
S1133DC0C000E179B1400843C8F8C0004F4958F831
S1133DD026000840217A090401F47021084348F8B8
S1133DE02600207A58B14A484057010007D00121E3
S1133DF000F01F029140474A400942F82010BDE8F4
S1133E00F081F8B504462168C1F3072001F0FF05ED
S1133E103B4951F820603B4951F8207002F0DBFF28
S1133E2057F825003849084040F4807047F82500C9
S1133E3001222946304604F026FA626829463046B3
S1133E4004F02CFA07EB85004001217A00F184424A
S1133E5042F8081F00F18442617A42F8181F00F109
S1133E608440A17A40F8141FF1BD0A4600F0FF0116
S1133E70234BC0F3072053F8200004F00FBA204965
S1133E80C0F3072251F82210012202FA00F0486020
S1133E9070471B49C0F3072251F82210012202FA8D
S1133EA000F0886070471649C0F3072251F82210C9
S1133EB00969C14001F0010070471249C0F30722AB
S1133EC051F8221000F0FF0001EB8000400100F1E6
S1133ED0844060300068401E8041C043C00F70477A
S1133EE00849C0F3072251F8221000F0FF0001EB4B
S1133EF08000400100F18440012140F8601F7047B8
S1133F008CA00100A0A00100FFF8FFFEFFFFF0FE5F
S1133F10B4A0010000E100E00901002806D54B4AE5
S1133F2000F00F00104400F8041C7047484A115474
S1133F30704770B50D46202D0446164608D3FF225F
S1133F400FF230110FF2201004F0B0F9C046C04651
S1133F5054F825003F490840310201F4E061084368
S1133F6044F8250070BD10B510B1012824D010BD4F
S1133F70394C022213212046FFF7DBFF02221221D3
S1133F802046FFF7D6FF03211D20FFF7C5FF0321BD
S1133F901E20FFF7C1FF03211F20FFF7BDFF0321F0
S1133FA02020FFF7B9FF03212120FFF7B5FFBDE86B
S1133FB0104003212220AFE7284C02221021204682
S1133FC0FFF7B7FF022211212046FFF7B2FF244872
S1133FD03021017041708170C1700171417110BD57
S1133FE010B5022815D11C4C022214212046FFF7DB
S1133FF0A0FF022215212046FFF79BFF0222162173
S11340002046FFF796FF2046BDE810400222172104
S11340108FE710BD10B5032802D0042809D010BDC5
S1134020104C032204212046FFF783FF03220521BD
S113403007E00A4C03220E212046FFF77AFF0322F1
S11340400F212046BDE8104073E7000018ED00E0A2
S113405000E400E0FFF8FFFE00A0044000B00440CC
S113406025E400E000D0044070696E203C20333227
S113407055000000433A5C55736572735C61626974
S1134080642E65736D61696C5C446F63756D656EF8
S113409074735C6D6963726F6E65745C736F757253
S11340A063655C4E65743836395F4D54355C4D43F9
S11340B0555F5441534B535C6961722F2E2E2F2E42
S11340C02E2F4D51585F4F532F4253502F706C6118
S11340D074666F726D2F68616C2F696E635C6673B2
S11340E06C5F706F72745F68616C2E680000000012
S11340F0002204F0F9B800B583B0684602F055FA1E
S1134100009A01984FF47A730021E3FB020103B093
S113411000BD0000000000000000000000000000DE
S113412072B6EFF3088383F309888908491C714A3E
S113413001E040F8042B491EFBD162B601DF704751
S113414001DFFEE76C48006872B6018B31B9416A41
S1134150C269D369994201D062B603DF62B670477F
S113416003DF7047FEE702DF704772B61EF0040FEC
S11341700CBFEFF30881EFF30981896911F8021C80
S1134180032905D100B500F01CF85DF804EB16E036
S1134190012902D15848006830E002290FD156485D
S11341A00068C1698A6842F001028A6000B54A6801
S11341B00B6813605A6000F004F85DF804EB62B613
S11341C0704707B54D48416811F0805F07D1EFF3A0
S11341D01182A2F1100280F822204949416007BDF2
S11341E072B645480068EFF3098C46498A78EFF3C4
S11341F011832CE9FC4FC369C3F814C072B6416A39
S11342000A688A4203D189680900F9D1FEE741624C
S1134210C261938C4383D2F814C0BCE8FC4F83F38F
S113422011888CF3098835483749416062B6704774
S113423072B600B5304B1B68198B01F1010119836B
S1134240002001B4EFF31182EFF30581586B07B43A
S1134250EFF30880586308461A6B02B92FE09042C6
S11342602DD8DA6A811A2ADB9A6B4FEAD1014FEA18
S11342708101515801B922E00A6822B1824203D077
S1134280C9680942F8D11AE088684A6808B462B675
S1134290904772B608BC07BC586301BC198B491E11
S11342A01983DA69906A10F4805F0AD129B9596ACE
S11342B00968914218BFFFF784FF62B600BD9A6A8D
S11342C0E4E740F40030906262B600BD00000000F4
S11342D070474FF08002D0E84F1F00290CBFC0E8A0
S11342E0432F01E0002BF6D108467047EFF303801B
S11342F0704700006B617473ACB4FF1F00ED00E005
S11343000000001020ED00E0000000080060002222
S1134310406002814181C260704730B41F4AEFF3AC
S113432011831360302383F31188448903892500A2
S113433003D0A34201D3106826E0446824680C60CB
S11343404568296045684D606160591C01811068A9
S11343501FE030B41149EFF311820A60302282F376
S1134360118802890B68110002D183F311880DE0D2
S113437001684C680D6825606C60521E028183F3ED
S11343801188084630BC704780F3118830BC002087
S1134390704780F3118830BC012070479C89FF1F4F
S11343A00189481E8041C00F704738B50446206813
S11343B0017841F080010170256805E0206A4FF022
S11343C0FF32904218BF804728780006F6D520684F
S11343D0007800F0310032BD10B5DFF8B4130A687C
S11343E0D2F81C3223B9182002F0EFFE002010BDD1
S11343F0010003D1D069D0F8940010BD002400F06E
S1134400FF01000AD2F8B021904216D1A9B19869EF
S113441000EB4110828A8A420CD10489C268002AC6
S11344201CBFD2F8980000280BD0807D884208D1A8
S1134430641C06E040F2137001E04FF4E26002F005
S1134440C4FE204610BDDFF848231268FF2801DDB2
S113445000207047030008BFD2F8B00101F0FF014B
S113446041EA002080B2704780B500220092002308
S1134470012200F001F802BD2DE9F8430446884604
S113448016469946DFF808030568D5F81C7227B963
S113449000F00FFBD5F81C723FB303F09DF8200029
S11344A01CD1B8694FF480710844082401E020301D
S11344B0641C7969A1420CD3818AA2B29142F6D0DC
S11344C0A0B230B1B869A4B200EB4410818AA14211
S11344D00ED103F08FF840F2117006E0786984423F
S11344E0F0D303F087F840F21B7002F06EFE8BE20B
S11344F0848200210160416001610181C682A0F8CB
S11345000A80C0F818900899C161012E12D1E96996
S1134510C160D1F88C203AB9C1F88C00C1F8900080
S11345200020C1F8940007E0D1F890201061C1F890
S1134530900001E00021C16003F05CF8D5F8B001FF
S113454004F0FF0141EA002080B2BDE8F28310B517
S113455084B0044608000DD001A9401E03F0DEFE1D
S1134560DDE90101801C41F10001CDE901016B4647
S1134570022201E06B46002201A9204600F002F865
S113458004B010BD2DE9F84F0446884693461F46F3
S1134590002038607E480168088B20B10D2002F0AD
S11345A014FE0D2007E0D1F81C02009028B9182051
S11345B002F00BFE18203860E9E10025D1F81C90C8
S11345C020002CD1D9F88C00002841D003F004F845
S11345D0D9F89400C0B90720C9F80800C9F83850C0
S11345E0C9F89850BBF1000F02D1FFF7BCFD08E0F9
S11345F0BBF1020F404602D101F00AFF01E001F0D5
S11346005EFFD9F89850A0E0D9F88C6000E03669D4
S1134610002E00F0B68030890028F8D099E004F02C
S1134620FF0A200AD1F8B011884202D1BAF1000F72
S113463007D14FF4E26002F0C8FD4FF4E260386045
S1134640A1E00098806900EB4A16B08A504507D073
S113465040F2137002F0B9FD40F21370386092E03A
S1134660F068002818BF484507D040F2127002F0E5
S1134670ACFD40F21270386085E002F0ADFF308985
S1134680002866D1F06800287BD00520C9F808000E
S1134690C9F838A0C9F89850BBF1000F02D1FFF750
S11346A062FD08E0BBF1020F404602D101F0B0FE0A
S11346B001E001F004FFD9F89850002D1FBF68886D
S11346C0A0423089002840D000988069A97800EB86
S11346D04114608918B120896189884230D2A5F1DA
S11346E01401088946F66752904218BF40F21670CA
S11346F028D10122204600F04DF9E06828B1D0F815
S11347009400401CE168C1F894003089401E308157
S113471031680868306000280FBF7060002032687C
S11347205060F06828B1D0F89400401EF268C2F8D6
S1134730940001F114050020C872C1F8109004E03F
S113474040F2177002F041FD00250020C9F89800DE
S113475017E0401E308131680868306000280EBFC1
S1134760706032685560F06828B1D0F89400401E3B
S1134770F268C2F8940001F114050020C872C1F86F
S1134780109002F037FF2846BDE8F28F00000000C9
S1134790ACB4FF1F4288002100E000002DE9F84F6F
S11347A00446894692460648D0F800B0DBF81C82DD
S11347B0B8F1000F06D1182002F007FDE7E000BFB2
S11347C0ACB4FF1F5CB1A4F11405288946F6675107
S11347D0884204BFA87A002801D1E87A20B140F2C7
S11347E0167002F0F2FCD2E05FEA1A2006D1DBF880
S11347F0B001618860F30F21618003E0DBF8B01140
S1134800884202D11AF0FF0707D1204600F0D4F9FC
S11348104FF4E26002F0D9FCB9E0D8F8180000EBDC
S11348204716B08AB84200D13EB9204600F0C4F918
S113483040F2137002F0C9FCA9E002F0CDFE7089C9
S113484020B130897189884280F09780F08A0128EC
S113485040F08480F168087A072804D0052804BF52
S1134860886BB84224D105F11400C1F8980029617D
S11348708868C0050ED548680A6802605060BBF8B5
S11348808C01401EABF88C01886820F4807040F0E5
S113489003008860084602F0B0FDB06910B1F06909
S11348A0B1698847B9F1000F4ED1FFF74BFC5FE0C7
S11348B00022A0791F2318421CBFD1F898000028B9
S11348C02ED00746A079C0060AD4B879C00627D4EA
S11348D0B87900F00F00A37903F00F0398421FD2B8
S11348E0C1F8984044F8041CA7F114052A61012278
S11348F07888824514D0D8F81800B97800EB4116AE
S1134900708968B130897189884209D302F072FED6
S1134910384600F051F940F2177002F056FC36E0C8
S11349202946304600F036F8F06828B1D0F89400F3
S1134930401CF168C1F89400B06910B1F069B16924
S11349408847B9F1000F13D0BBF8180080B90D20C7
S1134950DBF81C108860FFF706FC09E000222946FA
S1134960304600F017F8B06910B1F069B1698847B2
S113497002F040FE0120BDE8F28F02F03BFE40F25F
S1134980177002F022FC05F1140000F015F9002064
S1134990BDE8F28F30B4036823B900224A600A608C
S11349A0016029E08B7EDB0612D48AB98A7E0F234C
S11349B01A421BD002F00F0200230468A57E05F002
S11349C00F05954203D323462468002CF6D13BB946
S11349D002680A6000224A600268516001600CE0CB
S11349E024B14B600C601960616006E042684A6063
S11349F000220A604268116041600289521C0281EF
S1134A000120C87230BC70470020BDE8F283FEE785
S1134A1070B50446DFF89C020568D5F81C0208B995
S1134A20182028E0A08A46F66751884206BFA0698C
S1134A30052840F203701ED12089A0B9608A90B184
S1134A406089E18A884201D308000CD1618AE08A36
S1134A506289801A80B288423CBFE08A811A89B296
S1134A60204603F021FD02F0B7FDE6683EB902F0EE
S1134A70C1FD40F2017002F0A8FB002070BD306857
S1134A80E0602089401E208102F0B4FD0020B07255
S1134A90F072288B002814BF0020E869306106F109
S1134AA01400002141808180218A0180602181716C
S1134AB070BDF8B57F4804684FF4F070204403F0EB
S1134AC001FE002877D1D4F81C0228B14FF4F0700D
S1134AD0204403F0C4FD6DE02020FFF7F4F8050046
S1134AE006D14FF4F070204403F0B9FD0420F2BD68
S1134AF00921FFF7D0F8D4F8C80110B90120C4F88F
S1134B00C801D4F8C801C0EBC0018800FFF7DBF886
S1134B10060007D14FF4F070204403F0A0FD40F2EA
S1134B200670F2BD0B21FFF7B6F8D4F8CC014FF6AE
S1134B30FF72904228BF4FF6FE7001D200B90120E7
S1134B40C4F8CC01401C4001FFF7BDF807000AD1AE
S1134B504FF4F070204403F082FD3046FEF7DCFF92
S1134B6040F21970F2BD0A21FFF795F8686860B940
S1134B702861A860E860D4F8C8012860D4F8CC01A2
S1134B8068616E600026AF6100274B48E861C4F895
S1134B901C520FF27100C4F84C024FF4F070204420
S1134BA003F05DFD16B13046FEF7B6FF17B1384687
S1134BB0FEF7B2FF0020F2BD38B5A0F1140420893D
S1134BC046F66751884218BF012007D1A07A08B180
S1134BD0032003E0E07A28B140F21A70BDE83240C5
S1134BE002F0F3BAE5680120A07202F0F5FCE8686F
S1134BF02060EC602889401C2881BDE8314002F027
S1134C00F9BC00002DE9F04780462A480068D0F836
S1134C101C62002E4CD0D8F88C700FE02C68002059
S1134C20E87205F11400FFF7C7FF2546002DF5D102
S1134C3038463F69002101600161818257B1F868FB
S1134C4030B1D0F894003989401AF968C1F8940059
S1134C503D68EBE70020C8F88C00C8F8900077683E
S1134C603068461C00E01C37761E21D0B88A46F610
S1134C7067518842F7D13C6810E02869404504BF79
S1134C80A87A002805D1E87A18B905F11400FFF7CD
S1134C9093FF4D44BAF1010AEFD12468002CE2D00D
S1134CA0D4F8049004F11005A06800F1010AF1E7BA
S1134CB0BDE8F087ACB4FF1F7373656D38B5DFF8DA
S1134CC04C494FF478712046FFF712FA4FF46E7096
S1134CD0251843F2DE006860FEF7CFFE696828609D
S1134CE020B90FF60C20FEF7FDFF0EE00FF628208A
S1134CF0FEF7F8FF4FF470700021204403F04CFCE1
S1134D0028B10FF63420FEF7EDFF002032BD01205C
S1134D1032BD10B5052808DB02460FF62C210FF62C
S1134D203C20FEF7DFFF002010BDDFF8E01800EBA9
S1134D30C00201EB021404F1600002F047FD28B93F
S1134D4004F17000BDE8104002F040BD10BD70B524
S1134D5004000D4601D0052D06DB0FF620210FF6C9
S1134D603020FEF7BFFF2EE0217BDFF8A06805EBC3
S1134D70C500002906EB0010214618D0703002F05F
S1134D800AFD30B923462A460FF6F0110FF61C200F
S1134D9017E04FF47070304403F061FCA8B12A4668
S1134DA00FF6D8110FF62C20FEF79CFF0BE06030B5
S1134DB002F0F1FC48B923462A460FF6C0110FF65B
S1134DC03020FEF78FFF002070BD012070BD0A293E
S1134DD017DA1168097A00F84D1F1168497A417091
S1134DE01168897A81701168C97AC1701168097B68
S1134DF001711168497B41711168897B81710020BF
S1134E007047CE2070470A2904DA1168097800F83F
S1134E10541F0AE0CE2070470A2904DA1168097881
S1134E2000F8561F01E0CE207047116849784170A0
S1134E30002070472DE9F04F0FF6E411DFF8CC970E
S1134E408DB0D1E900230BA80026C0E9002300207F
S1134E50029009F1040803F0D9FDC046C0464FF49E
S1134E60567048440190056E4FF4377048440790DB
S1134E70824609F18400069009F1F00000904FF495
S1134E808A70484405904FF4C07048440A904FF427
S1134E90D270484404904FF40470484409904FF48D
S1134EA00D70484403904FF42870484408904FF420
S1134EB0317009EB00040FF2FD20CAF80000CAF8B3
S1134EC00480CAF8148007220FF24530CAF8100093
S1134ED00BA9DFF83C07CAF81C0000208AF8200060
S1134EE0DFF83007CAF8180002208AF8280008F111
S1134EF04D0001F01BFC0DF10A0008F15401027889
S1134F000A7042784A7002A808F1560102780A70C1
S1134F1042784A7008F14A0000210170867308F152
S1134F208800C8F844100160416008F15C0002F098
S1134F302BFC002108F16C0002F026FC042E00F288
S1134F40E080DFE806F003548EABC6007DB9002292
S1134F500FF624310FF63030FEF7C4FE31460FF65B
S1134F60C800FEF7BFFE00200DB0BDE8F08F069824
S1134F7045600520069908700020A860287329461A
S1134F8009F1600002F007FC58B305F15207002054
S1134F90B8603873394609F1600002F0FCFB00B3D5
S1134FA052370020B8603873394609F1600002F0C6
S1134FB0F2FBB0B152370020B8603873394609F1BA
S1134FC0600002F0E8FB60B152370020B86038732B
S1134FD0394609F1600002F0DEFB10B14FF4CD70E8
S1134FE08EE000210FF6B820FEF77CFEB6E70DB97F
S1134FF00122ADE705984560052005990870002059
S1135000A86028732946009802F0C5FB38B305F15F
S113501094070020B86038733946009802F0BBFB4F
S1135020E8B194370020B86038733946009802F02C
S1135030B2FBA0B194370020B860387339460098A9
S113504002F0A9FB58B194370020B8603873394690
S1135050009802F0A0FB10B14FF4397050E0012128
S1135060C0E72F0001D1022272E7049845601420A2
S11350700499087083460020B860387339460A984A
S113508002F089FB40B14FF488703F18BBF1010B6B
S1135090F1D14FF4AA5033E00221A3E72F0001D14C
S11350A0032255E70398456014200399087083464A
S11350B00020B86038733946099802F06CFB30B1AF
S11350C04FF488703F18BBF1010BF1D1E1E70321E4
S11350D088E72F0001D104223AE765600A20207096
S11350E083460020B86038733946089802F053FBB1
S11350F000285CD03037BBF1010BF2D14FF4F070D3
S11351000544761C052E08F190080AF12C0AFFF6D6
S1135110D2AEDFF80405002101804A4640214180D7
S1135120818005202074079860614FF4357009EB85
S11351300001002003F090FC09F14F0002214170AE
S1135140032101700521E06BC9F8040009F1DF00B7
S113515041700621017009F18401A06E08610821E3
S113516009F26F104170092101704FF48A7101989E
S113517000684944086109F2FF100B2141700C21B9
S113518001704FF4D2710198C06A4944086109F270
S11351908F200E2141700F2101704FF40D71019881
S11351A0806D49440DB008610120BDE8F08F0421F1
S11351B018E7000038B51468010011D1002082F806
S11351C048002046DFF85054294603F08FFFF0B919
S11351D02988204603F0B4FB40206880A88031BDB4
S11351E001280CD1DFF83004438802F14805121D70
S11351F0E978204603F073FF0120287031BD0628AA
S113520005D1BDE832400FF23460FEF76BBD31BD0D
S1135210F8B5069D2E68002404287BD005285FD0AD
S1135220202827D021280FD0232814D0242819D0AF
S1135230252824D0262827D0632840D0642829D0C4
S1135240672800F0B880B5E0C9B20A2980F2B280BC
S113525005F14D000CE0C9B20A2980F2AB8005F1DA
S1135260540005E0C9B20A2980F2A48005F1560071
S11352701060A0E0C9B22846FFF7A9FD08E0C9B252
S11352802846FFF7C0FD03E0C9B22846FFF7C4FD76
S1135290044690E005F144073879002800F08B803B
S11352A0397D0FF2D450FEF71DFD387D18B9DFF8B3
S11352B06C130120086001207871B8717BE005F15E
S11352C044073879002876D0397D0FF2C050FEF7B4
S11352D009FD387D08B9D14908607C71BC716AE068
S11352E005F14407387900281CBF7879002862D07A
S11352F018683860002818BF10F1010F5BD02846E9
S113530000F0B8F8C4484388F9792A1D304603F000
S1135310E6FE50E0002B1CBF1868002805F1440786
S11353200DD0BD498988B0FBF1FC01FB1C0030B9EC
S1135330397A00230022304603F0CAFE3BE0387974
S113534000281CBF787900281ED0106808B9186896
S113535098B9B96B59B105F15C0002F01CFA28B98F
S1135360BA6B397D0FF23850FEF7BCFCBC630120E8
S1135370B871B86C401CB8641DE0B86BD8B10FF2BA
S11353804C50FEF7AFFC16E0BA6B0FF2D4410FF2AB
S11353904450FEF7A7FCB96B69B105F15C0002F05B
S11353A0FAF928B9BA6B397D0FF2F440FEF79AFC8A
S11353B0BC6300E0CE242046F2BDF0B50FF23450B9
S11353C085B0D0E90023CDE9002302A80021002202
S11353D000230EC0FFF72EFD28B90FF22050FEF770
S11353E081FCFEF7C0FE0020009002A96420019019
S11353F0684601F080F928B90FF2EC410FF2205011
S1135400FEF770FC814C4FF4707002A9204403F045
S1135410A4F90D2818BF1F2806D101460FF21C500D
S1135420FEF760FC64201DE04C3405250FF2205685
S11354300FF2B447207800281CBF607800280DD0F4
S1135440A07858B154F8480CA4F1480100F0ECF8E5
S113545020B9227C39463046FEF744FC90346D1E58
S1135460E8D1012000F096FF6D4800780028BAD0FA
S113547005B0F0BD70B5040084B000F0C580634988
S113548020684A68904234D120797E287DD16548CD
S11354900068FFF7BDFA050017D101210020FEF7CF
S11354A0D2FFFEF799FF05460C210020FEF7CBFF43
S11354B0FEF792FF064601F04FFE014633462A46A8
S11354C00FF29C40FEF70EFC5FE0626C211D05F1BB
S11354D0110001F02BF901210020FEF7B4FFA88090
S11354E00C210020FEF7AFFF6880606C288000204C
S11354F047E0D1F89420904200F08680D1F824212E
S113550090421DD147480068FFF782FA050008BFA2
S11355100FF2904058D0626C211D05F1110001F08A
S113552005F901210020FEF78EFFA880022100204A
S1135530FEF789FF6880606C11302880022020E02B
S1135540D1F8B421904224D136480068FFF760FABC
S1135550050008BF0FF2844036D0626C211D05F1AE
S1135560110001F0E3F801210020FEF76CFFA88090
S113557003210020FEF767FF6880606C11302880EB
S1135580032028742846FFF705F90020606404B05E
S113559070BDD1F84412884236D1684600210022F9
S11355A0002300252EC0616C032905D20FF264404C
S11355B0FEF798FB04B070BD1A480068FFF728FA9C
S11355C0050005D10FF27840FEF78CFB04B070BDE6
S11355D0626C05F11101684603F0B1FD626C211D96
S11355E0684603F0B3FD0298288001210020FEF7ED
S11355F02AFFA88006210020FEF725FF68800420EA
S113560028742846FFF7C6F804B070BD408EFF1F0B
S11356103134010094B4FF1F44A4FF1FACABFF1F3F
S11356204AA4FF1FA4ABFF1FF8B50F00064606D11E
S11356300FF290410FF29C40FEF754FB39E007F162
S11356407C0507F14A04296861B107F15C0002F0A6
S1135650A2F828B92A68A17B0FF24420FEF742FB86
S11356600020286007F16C0002F0B0F8286080B3D5
S11356700021217000F10D02037BA178304603F074
S113568027FDC0B1A27B0FF23C410FF25C40FEF754
S113569029FB296807F15C0002F07DF828B92A6823
S11356A0A17B0FF2FC10FEF71DFB002028600120F7
S11356B020700020F2BDE868431C2869EB60984222
S11356C007D30090A27B0FF2FC310FF23840FEF7B3
S11356D009FB2078002804BF2868002806D1A27B93
S11356E00FF2E0310FF25840FEF7FCFA0120F2BD50
S11356F04552524F5220616C6C6F63617465205542
S11357005342206F757420627566666572732073E8
S11357103D25640A00000000555342204F75742053
S11357206275666665727320616C6C6F6361746523
S11357306420733D25640A004552524F522055534C
S1135740422073656D610A00476574555342577270
S113575069746542756666657200000025733A4592
S113576052524F52207468652055534220706F7214
S1135770742025642077726F6E670A005365745530
S1135780534257726974654275666665720000001B
S113579025733A4552524F5220706172616D65749F
S11357A06572732077726F6E670A000025733A453D
S11357B052524F522061646420717565756520658D
S11357C06C656D2063646325642C206164647220BD
S11357D025780A0025733A4552524F522073657456
S11357E02073656D20666F722063646325640A000C
S11357F025733A4552524F522061646420746F20DD
S11358006672656520717565756520656C656D20CA
S113581063646325642C20616464722025780A0023
S113582000C20100000008004552524F5220737418
S11358306172742043444325640A00004552524F68
S1135840522055534220676574205553425F4445A6
S1135850565F4556454E545F4552524F520A0A0010
S11358605553425F4170705F436C6173735F436172
S11358706C6C6261636B0000506F7274256420610C
S113588063746976617465640A000000506F727411
S113589025642064656163746976617465640A00D3
S11358A025733A204572726F722061646420746FAC
S11358B0206672656520717565756520706F7274F8
S11358C02564206D656D2025780A000073746F705F
S11358D0310A000025733A204576436F6D703520F8
S11358E025780A0A000000005573625F7461736BC7
S11358F00000000000000000000000004572726F0C
S11359007220696E69616C697A652055534220740E
S113591061736B20626C6F636B65640A0000000046
S113592025733A204572726F7220636F6E7620740D
S1135930696D653274696B730A00000025733A203F
S11359404572726F722025642073656D0A00000031
S113595025733A5741524E206364635F25640A00FD
S1135960434443305F72657376205553422054613B
S1135970736B3A204552524F525B25755D3A206D48
S113598065737361676520616C6C6F636174696FC3
S11359906E206661696C65642025755B25755D0AFA
S11359A000000000434443325F7265737620555310
S11359B042205461736B3A204552524F523A206D43
S11359C065737361676520616C6C6F636174696F83
S11359D06E206661696C65640A00000043444333C9
S11359E05F7265737620555342205461736B3A207D
S11359F04552524F523A206D657373616765206159
S1135A006C6C6F636174696F6E206661696C656448
S1135A100A000000434443345F7265737620555393
S1135A2042205461736B3A2072656320646174612F
S1135A302073697A65202564203C2033200A000005
S1135A40434443345F726573762055534220546156
S1135A50736B3A204552524F523A206D657373610D
S1135A60676520616C6C6F636174696F6E20666139
S1135A70696C65640A0000004344435F51756575B1
S1135A80655F696E697400004572726F207061729F
S1135A90616D202573204344432025640A000000DF
S1135AA04552524F522061646420656C656D656E89
S1135AB07420746F204344432025642071756575F8
S1135AC0650A00004344435F53656E644461746136
S1135AD00000000025733A204572726F72207061D5
S1135AE072616D0A0000000025733A204572726FDE
S1135AF0722073656E642055534220706F72745F18
S1135B0025640A0025733A207061636B6574206113
S1135B106C72656164792073656E74205420505FE3
S1135B2025643A2073656E645061636B6574733ADF
S1135B302025642C20636F6D706C3A2025640A0064
S1135B4025733A205365742073656E645220542083
S1135B50505F25640A00000080B5DFF80C2852F875
S1135B60200003F075FB002002BDDFF8FC2752F88B
S1135B70200003F06DBF80B5DFF8EC3753F8200048
S1135B800B0004D1114603F084FF002002BD01295B
S1135B9003D1114603F093FFF7E7032002BD18B4C5
S1135BA014461A46DFF8C03753F820000B0003D11F
S1135BB0214618BC03F0A2BF012903D1214618BC19
S1135BC003F0C3BF12BC03207047F8B50446DFF8E6
S1135BD0980750F824700D461646204601F02AF91D
S1135BE00121384603F0FFFA01005ED1384603F084
S1135BF0DBFA384603F0FFFA010056D13168384623
S1135C0003F0D1FD707918B13179384603F095FD70
S1135C10B179384603F0D8FF010046D1002105F1DF
S1135C20080004F05BF8002105F1280004F056F8A0
S1135C30DFF838070257DFF83807012102F01F03A5
S1135C4001FA03F3520940F82230DFF828271257EB
S1135C5002F01F0301FA03F3520940F82230DFF87F
S1135C601827125702F01F0301FA03F3520940F8F0
S1135C702230DFF80827125702F01F039940520917
S1135C8040F8221005F1480000210170417005F12F
S1135C904A00102100F046FD002028606860DFF80B
S1135CA0E00600EB8400C5630020F2BD30B5DFF8E8
S1135CB0D04604EB800485B0E46B616055680395BD
S1135CC01278DFF8A4568DF80820082201920022E9
S1135CD0009201AA55F8200003F0EAFA01001CBF63
S1135CE0002184F8481005B030BD30B5DFF8904687
S1135CF004EB800483B0E46B002584F85A50079CBD
S1135D000194069C009400F06FFA010008BF002083
S1135D1003B030BD70B50C46DFF84C1684B051F8B2
S1135D202060DFF85C1601EB80001D46C06B016843
S1135D300123A340194301602B4650680290214679
S1135D4010788DF804006A460F200090304603F066
S1135D5044FC010011D1002000902B466A462146E4
S1135D60304603F03AFC010007D1042000902B4692
S1135D706A462146304603F030FC04B070BD80B55D
S1135D80DFF8E43553F8200003F03AFD010008BFC2
S1135D90002002BD18B4DFF8E83503EB80030024CB
S1135DA0DB6B0B4483F85C4018BC60E2DFF8D02561
S1135DB002EB80020023D26B82F85B307EE2F8B5FE
S1135DC00446DFF8BC0500EB8405DFF89C0550F8B9
S1135DD02460EF6B00224FF40041304603F0BEFD17
S1135DE000224FF48041304603F0B8FDB06A002031
S1135DF0B062052000F0CEFA07F1080003F095FF29
S1135E0007F1280003F091FFDFF860050257DFF87F
S1135E107405012102F01F0301FA03F3520940F84B
S1135E202230DFF85025125702F01F0301FA03F362
S1135E30520940F82230DFF84025125702F01F03C0
S1135E4001FA03F3520940F82230DFF830251257E3
S1135E5002F01F039940520940F82210304603F023
S1135E6008FF304603F0AFF90020E863204600F055
S1135E70E4FF0020F2BD00002DE9F04F044687B096
S1135E80206BDFF8FC540E46A16A0840049005F12B
S1135E901401204603F0A7FD16B9206B20638FE19F
S1135EA0206A009040F207310098084217D0009809
S1135EB0400711D5DFF8B0040068A04205D1E86BB3
S1135EC090F8480040B1002004E0286C90F84800A5
S1135ED010B1012000F028FA204603F08DFD04984B
S1135EE0002800F06C817168012000FA01F7206B32
S1135EF007420ED0A869401CA861DFF86C04006852
S1135F00A0420CBF0020012000F00EFA206B3840A4
S1135F102063206B10F0E00F76D0600100F1844024
S1135F207430006800286FD006F1EC073878002838
S1135F3040F0458101203870206B400602D5286965
S1135F40401C2861206B000609D5E868401CE86005
S1135F5005E02869401C286100BF00BF00BF206B1A
S1135F6080063DD5786800281CBFB96800292AD06E
S1135F70FEF7EFF9060017D006F10801204603F0FA
S1135F8042FD206B00F020002063206B400603D507
S1135F90206B00F0400020633146B868FEF7BDF97D
S1135FA02868401C28600EE0A068206B00F02000E8
S1135FB02063206B400603D5206B00F04000206373
S1135FC06868401C686001224FF48041204603F059
S1135FD0C5FC01224FF40041204603F0BFFCBEE79C
S1135FE0206B4006B5D4206B400603D5206B00F02F
S1135FF040002063206B000603D5206B00F0800076
S1136000206300203870DBE03068049911EA000A4C
S11360101EBF06F1EC07786800281CBFB86800288A
S113602000F0CD804FF0000806F170095FEACA70F5
S113603040F1BA807868FEF7B3F9B8B97868FEF72A
S113604088F9060015D04146204603F067FB06F1A7
S113605008024146204603F028FBB8683146FEF7A3
S11360605CF9A0682868401C286002E06868401C4D
S11360706860012000FA08F00590C0430490BA4813
S1136080D0F800B0CDF818B05846A04203D1CDF8EE
S113609000B0EE6B03E0B448406800902E6C002220
S11360A0414603F048FC3068049908403060306889
S11360B028B9009800224FF4804103F04FFC06EB0E
S11360C008004A300090807C18B106F1280003F0E3
S11360D028FE0099002008700598206319F8030C25
S11360E0002861D0069919F8020CD9F80060A14281
S11360F02AD1E96B0A68059B1A430A608DF80800E7
S113610008210F2003910190334601AA41465846C5
S113611003F063FA78B90190334601AA4146584620
S113612003F05BFA38B904200190334601AA4146D2
S1136130584603F052FA19F8041CEA6B0A4400208A
S113614082F85C0000222DE08749D1F804B0296C64
S11361500A68059B1A430A608DF8080008210F207D
S113616003910190334601AA4146584603F035FA9B
S113617078B90190334601AA4146584603F02DFAF6
S113618038B904200190334601AA4146584603F029
S113619024FA19F8041C2A6C0A44002082F85C00D2
S11361A00022012000F063F85FEA5A0A08F10108AE
S11361B009F1080903D0B8F1100FFFF437AF00BF9D
S11361C007B0BDE8F08F80B56D4A02EB8001C96B62
S11361D0D1F8F41031B108460089C046002814BF34
S11361E000200420C0B202BDF0B50FF29C1585B0AA
S11361F0B5E8C0100C4601A9A1E8C010604901EB44
S11362008001CD6B584951F820606C60214650687C
S1136210039010788DF8080001AA0B98002814BF89
S11362201C200C2001900A980090304603F040F89E
S1136230070011D101222146304603F07CFB0122E4
S11362404FF48041304603F089FB01224FF40041B2
S1136250304603F083FB07E000222146304603F07A
S11362606AFB002085F84800384605B0F0BD38B513
S11362703D4A52F82040424A02EB80001029C06B8C
S113628001D3012032BD084490F84A200AB1072006
S113629032BD012280F84A20204603F04CFB05461B
S11362A001224FF48041204603F058FB01224FF4B1
S11362B00041204603F052FB284632BD10B52A495E
S11362C051F820402E4901EB8000C06B90F8491032
S11362D009B1072010BD012180F8491001220021D5
S11362E080F8EC102046052103F025FB01001AD1AB
S11362F001220621204603F01EFB010013D10122D6
S11363000721204603F017FB01000CD101224FF4B2
S11363108041204603F022FB01224FF40041204635
S113632003F01CFB002010BD38B50F4951F8204084
S1136330134901EB80000022C56B6968204603F015
S1136340FAFA00224FF48041204603F007FB05F1DE
S11363504804A07C18B105F1080003F0E2FC002019
S1136360207031BD000000008CA2010094A2010045
S113637000E100E096A2010098A201009AA20100A7
S11363802C93FF1F80E100E00C00000000000000DF
S11363900000000038B5DFF884130C68002804BF3F
S11363A0BDE8314003F098BDE56905F14401401EA4
S11363B001F0B4FFD5E91101801C41F10001C5E9E8
S11363C0110101F009F905F144024FF4B6702118E6
S11363D005F1440003F006FE284600F033F813E00C
S11363E001F0FAF8A068C0050ED560682168016064
S11363F04860B5F88C01401EA5F88C01A06820F413
S1136400807040F00300A060BDE8314001F0F2B8B4
S113641070B50400DFF80403056804D10C20BDE85E
S1136420704000F0D2BEEE6901F0D6F806F14402E5
S11364304FF4B6702918204603F0D4FD304600F01E
S113644001F838E0F8B50446DFF8D00200684FF4EC
S1136450C2710144B0F88C21DAB1D0F8845102F150
S1136460010C01E029462D68BCF1010C11D0D4E9DE
S11364701167D5E911239F420BD301D8964208D363
S1136480D5E91167D4E911239F42EBD301D8964291
S1136490E8D36268236813605A6022464FF4C273DB
S11364A0184401F0AAF9A06840F48070A060BDE827
S11364B0F140FDF755BEBDE8704001F09BB838B51A
S11364C020B90C20BDE8324000F07FBEDFF84C124A
S11364D00968CC6904F144012CC82CC101F07CF892
S11364E02046FFF7AFFF8FE780B5002818BF0029CB
S11364F000D00AB90C2002BD03F096FD002002BDB5
S1136500002818BF002905D10AB1012010706FF0CE
S11365100040704703F0A6BD10B584B014466A4627
S1136520FFF7E2FF2146684603F01CFE04B010BDED
S113653010B584B0040006D0684600F006F8214681
S1136540684603F011FE04B010BD38B5040014D041
S1136550DFF8C801056801F03FF84FF4B67028442D
S11365600EC80EC40C3CD5F8A80128B1D5F8AC016E
S1136570D5F8A8118847A06049E031BD38B50400BA
S113658012D0DFF8980101684FF4B67008442CC8A3
